{
  "_format": "hh3-artifact-1",
  "contractName": "VeritasCredential",
  "sourceName": "contracts/VeritasCredential.sol",
  "abi": [
    {
      "inputs": [],
      "stateMutability": "nonpayable",
      "type": "constructor"
    },
    {
      "anonymous": false,
      "inputs": [
        {
          "indexed": true,
          "internalType": "bytes32",
          "name": "certificateHash",
          "type": "bytes32"
        },
        {
          "indexed": false,
          "internalType": "string",
          "name": "studentName",
          "type": "string"
        },
        {
          "indexed": false,
          "internalType": "string",
          "name": "institution",
          "type": "string"
        },
        {
          "indexed": false,
          "internalType": "uint256",
          "name": "issuedAt",
          "type": "uint256"
        }
      ],
      "name": "CertificateIssued",
      "type": "event"
    },
    {
      "inputs": [
        {
          "internalType": "bytes32",
          "name": "certificateHash",
          "type": "bytes32"
        },
        {
          "internalType": "string",
          "name": "studentName",
          "type": "string"
        },
        {
          "internalType": "string",
          "name": "institution",
          "type": "string"
        },
        {
          "internalType": "string",
          "name": "course",
          "type": "string"
        },
        {
          "internalType": "string",
          "name": "graduationDate",
          "type": "string"
        },
        {
          "internalType": "string",
          "name": "ipfsCID",
          "type": "string"
        }
      ],
      "name": "issueCertificate",
      "outputs": [],
      "stateMutability": "nonpayable",
      "type": "function"
    },
    {
      "inputs": [],
      "name": "owner",
      "outputs": [
        {
          "internalType": "address",
          "name": "",
          "type": "address"
        }
      ],
      "stateMutability": "view",
      "type": "function"
    },
    {
      "inputs": [
        {
          "internalType": "address",
          "name": "newOwner",
          "type": "address"
        }
      ],
      "name": "transferOwnership",
      "outputs": [],
      "stateMutability": "nonpayable",
      "type": "function"
    },
    {
      "inputs": [
        {
          "internalType": "bytes32",
          "name": "certificateHash",
          "type": "bytes32"
        }
      ],
      "name": "verifyCertificate",
      "outputs": [
        {
          "internalType": "bool",
          "name": "isValid",
          "type": "bool"
        },
        {
          "internalType": "string",
          "name": "studentName",
          "type": "string"
        },
        {
          "internalType": "string",
          "name": "institution",
          "type": "string"
        },
        {
          "internalType": "string",
          "name": "course",
          "type": "string"
        },
        {
          "internalType": "string",
          "name": "graduationDate",
          "type": "string"
        },
        {
          "internalType": "string",
          "name": "ipfsCID",
          "type": "string"
        },
        {
          "internalType": "uint256",
          "name": "issuedAt",
          "type": "uint256"
        }
      ],
      "stateMutability": "view",
      "type": "function"
    }
  ],
  "bytecode": "0x6080604052348015600e575f5ffd5b50335f5f6101000a81548173ffffffffffffffffffffffffffffffffffffffff021916908373ffffffffffffffffffffffffffffffffffffffff1602179055506111458061005b5f395ff3fe608060405234801561000f575f5ffd5b506004361061004a575f3560e01c8063850c17681461004e5780638da5cb5b14610084578063b61a2e13146100a2578063f2fde38b146100be575b5f5ffd5b61006860048036038101906100639190610857565b6100da565b60405161007b9796959493929190610924565b60405180910390f35b61008c61049f565b60405161009991906109f3565b60405180910390f35b6100bc60048036038101906100b79190610b38565b6104c3565b005b6100d860048036038101906100d39190610c77565b6106d5565b005b5f60608060608060605f5f60015f8a81526020019081526020015f206040518060e00160405290815f8201805461011090610ccf565b80601f016020809104026020016040519081016040528092919081815260200182805461013c90610ccf565b80156101875780601f1061015e57610100808354040283529160200191610187565b820191905f5260205f20905b81548152906001019060200180831161016a57829003601f168201915b505050505081526020016001820180546101a090610ccf565b80601f01602080910402602001604051908101604052809291908181526020018280546101cc90610ccf565b80156102175780601f106101ee57610100808354040283529160200191610217565b820191905f5260205f20905b8154815290600101906020018083116101fa57829003601f168201915b5050505050815260200160028201805461023090610ccf565b80601f016020809104026020016040519081016040528092919081815260200182805461025c90610ccf565b80156102a75780601f1061027e576101008083540402835291602001916102a7565b820191905f5260205f20905b81548152906001019060200180831161028a57829003601f168201915b505050505081526020016003820180546102c090610ccf565b80601f01602080910402602001604051908101604052809291908181526020018280546102ec90610ccf565b80156103375780601f1061030e57610100808354040283529160200191610337565b820191905f5260205f20905b81548152906001019060200180831161031a57829003601f168201915b5050505050815260200160048201805461035090610ccf565b80601f016020809104026020016040519081016040528092919081815260200182805461037c90610ccf565b80156103c75780601f1061039e576101008083540402835291602001916103c7565b820191905f5260205f20905b8154815290600101906020018083116103aa57829003601f168201915b5050505050815260200160058201548152602001600682015f9054906101000a900460ff16151515158152505090508060c00151610465575f5f60405180602001604052805f8152509060405180602001604052805f8152509060405180602001604052805f8152509060405180602001604052805f8152509060405180602001604052805f81525090975097509750975097509750975050610494565b6001815f015182602001518360400151846060015185608001518660a001519750975097509750975097509750505b919395979092949650565b5f5f9054906101000a900473ffffffffffffffffffffffffffffffffffffffff1681565b5f5f9054906101000a900473ffffffffffffffffffffffffffffffffffffffff1673ffffffffffffffffffffffffffffffffffffffff163373ffffffffffffffffffffffffffffffffffffffff1614610551576040517f08c379a000000000000000000000000000000000000000000000000000000000815260040161054890610d6f565b60405180910390fd5b60015f8781526020019081526020015f206006015f9054906101000a900460ff16156105b2576040517f08c379a00000000000000000000000000000000000000000000000000000000081526004016105a990610dd7565b60405180910390fd5b6040518060e001604052808681526020018581526020018481526020018381526020018281526020014281526020016001151581525060015f8881526020019081526020015f205f820151815f01908161060c9190610f95565b5060208201518160010190816106229190610f95565b5060408201518160020190816106389190610f95565b50606082015181600301908161064e9190610f95565b5060808201518160040190816106649190610f95565b5060a0820151816005015560c0820151816006015f6101000a81548160ff021916908315150217905550905050857f6aa5049566532374d8eb77423544658da943403816bc40386bcdbeacd3ba9ff28686426040516106c593929190611064565b60405180910390a2505050505050565b5f5f9054906101000a900473ffffffffffffffffffffffffffffffffffffffff1673ffffffffffffffffffffffffffffffffffffffff163373ffffffffffffffffffffffffffffffffffffffff1614610763576040517f08c379a000000000000000000000000000000000000000000000000000000000815260040161075a90610d6f565b60405180910390fd5b5f73ffffffffffffffffffffffffffffffffffffffff168173ffffffffffffffffffffffffffffffffffffffff16036107d1576040517f08c379a00000000000000000000000000000000000000000000000000000000081526004016107c8906110f1565b60405180910390fd5b805f5f6101000a81548173ffffffffffffffffffffffffffffffffffffffff021916908373ffffffffffffffffffffffffffffffffffffffff16021790555050565b5f604051905090565b5f5ffd5b5f5ffd5b5f819050919050565b61083681610824565b8114610840575f5ffd5b50565b5f813590506108518161082d565b92915050565b5f6020828403121561086c5761086b61081c565b5b5f61087984828501610843565b91505092915050565b5f8115159050919050565b61089681610882565b82525050565b5f81519050919050565b5f82825260208201905092915050565b8281835e5f83830152505050565b5f601f19601f8301169050919050565b5f6108de8261089c565b6108e881856108a6565b93506108f88185602086016108b6565b610901816108c4565b840191505092915050565b5f819050919050565b61091e8161090c565b82525050565b5f60e0820190506109375f83018a61088d565b818103602083015261094981896108d4565b9050818103604083015261095d81886108d4565b9050818103606083015261097181876108d4565b9050818103608083015261098581866108d4565b905081810360a083015261099981856108d4565b90506109a860c0830184610915565b98975050505050505050565b5f73ffffffffffffffffffffffffffffffffffffffff82169050919050565b5f6109dd826109b4565b9050919050565b6109ed816109d3565b82525050565b5f602082019050610a065f8301846109e4565b92915050565b5f5ffd5b5f5ffd5b7f4e487b71000000000000000000000000000000000000000000000000000000005f52604160045260245ffd5b610a4a826108c4565b810181811067ffffffffffffffff82111715610a6957610a68610a14565b5b80604052505050565b5f610a7b610813565b9050610a878282610a41565b919050565b5f67ffffffffffffffff821115610aa657610aa5610a14565b5b610aaf826108c4565b9050602081019050919050565b828183375f83830152505050565b5f610adc610ad784610a8c565b610a72565b905082815260208101848484011115610af857610af7610a10565b5b610b03848285610abc565b509392505050565b5f82601f830112610b1f57610b1e610a0c565b5b8135610b2f848260208601610aca565b91505092915050565b5f5f5f5f5f5f60c08789031215610b5257610b5161081c565b5b5f610b5f89828a01610843565b965050602087013567ffffffffffffffff811115610b8057610b7f610820565b5b610b8c89828a01610b0b565b955050604087013567ffffffffffffffff811115610bad57610bac610820565b5b610bb989828a01610b0b565b945050606087013567ffffffffffffffff811115610bda57610bd9610820565b5b610be689828a01610b0b565b935050608087013567ffffffffffffffff811115610c0757610c06610820565b5b610c1389828a01610b0b565b92505060a087013567ffffffffffffffff811115610c3457610c33610820565b5b610c4089828a01610b0b565b9150509295509295509295565b610c56816109d3565b8114610c60575f5ffd5b50565b5f81359050610c7181610c4d565b92915050565b5f60208284031215610c8c57610c8b61081c565b5b5f610c9984828501610c63565b91505092915050565b7f4e487b71000000000000000000000000000000000000000000000000000000005f52602260045260245ffd5b5f6002820490506001821680610ce657607f821691505b602082108103610cf957610cf8610ca2565b5b50919050565b7f4f6e6c792074686520696e737469747574696f6e2063616e20697373756520635f8201527f6572746966696361746573000000000000000000000000000000000000000000602082015250565b5f610d59602b836108a6565b9150610d6482610cff565b604082019050919050565b5f6020820190508181035f830152610d8681610d4d565b9050919050565b7f436572746966696361746520616c7265616479206973737565640000000000005f82015250565b5f610dc1601a836108a6565b9150610dcc82610d8d565b602082019050919050565b5f6020820190508181035f830152610dee81610db5565b9050919050565b5f819050815f5260205f209050919050565b5f6020601f8301049050919050565b5f82821b905092915050565b5f60088302610e517fffffffffffffffffffffffffffffffffffffffffffffffffffffffffffffffff82610e16565b610e5b8683610e16565b95508019841693508086168417925050509392505050565b5f819050919050565b5f610e96610e91610e8c8461090c565b610e73565b61090c565b9050919050565b5f819050919050565b610eaf83610e7c565b610ec3610ebb82610e9d565b848454610e22565b825550505050565b5f5f905090565b610eda610ecb565b610ee5818484610ea6565b505050565b5b81811015610f0857610efd5f82610ed2565b600181019050610eeb565b5050565b601f821115610f4d57610f1e81610df5565b610f2784610e07565b81016020851015610f36578190505b610f4a610f4285610e07565b830182610eea565b50505b505050565b5f82821c905092915050565b5f610f6d5f1984600802610f52565b1980831691505092915050565b5f610f858383610f5e565b9150826002028217905092915050565b610f9e8261089c565b67ffffffffffffffff811115610fb757610fb6610a14565b5b610fc18254610ccf565b610fcc828285610f0c565b5f60209050601f831160018114610ffd575f8415610feb578287015190505b610ff58582610f7a565b86555061105c565b601f19841661100b86610df5565b5f5b828110156110325784890151825560018201915060208501945060208101905061100d565b8683101561104f578489015161104b601f891682610f5e565b8355505b6001600288020188555050505b505050505050565b5f6060820190508181035f83015261107c81866108d4565b9050818103602083015261109081856108d4565b905061109f6040830184610915565b949350505050565b7f496e76616c6964206164647265737300000000000000000000000000000000005f82015250565b5f6110db600f836108a6565b91506110e6826110a7565b602082019050919050565b5f6020820190508181035f830152611108816110cf565b905091905056fea2646970667358221220f2e650903375e011bae1d0fe3c3f475576b255675710c7b3daaddc8e99a1942f64736f6c634300081c0033",
  "linkReferences": {},
  "deployedLinkReferences": {},
  "immutableReferences": {},
  "inputSourceName": "project/contracts/VeritasCredential.sol",
  "buildInfoId": "solc-0_8_28-be3e76ef8d2a1c3ad78231e5c564ced39aaa89a0"
}